{
  "contractName": "EventContract",
  "abi": [
    {
      "inputs": [
        {
          "internalType": "uint256",
          "name": "",
          "type": "uint256"
        }
      ],
      "name": "events",
      "outputs": [
        {
          "internalType": "address",
          "name": "organizer",
          "type": "address"
        },
        {
          "internalType": "string",
          "name": "name",
          "type": "string"
        },
        {
          "internalType": "uint256",
          "name": "date",
          "type": "uint256"
        },
        {
          "internalType": "uint256",
          "name": "price",
          "type": "uint256"
        },
        {
          "internalType": "uint256",
          "name": "ticketCount",
          "type": "uint256"
        },
        {
          "internalType": "uint256",
          "name": "ticketRemain",
          "type": "uint256"
        }
      ],
      "stateMutability": "view",
      "type": "function",
      "constant": true
    },
    {
      "inputs": [],
      "name": "nextId",
      "outputs": [
        {
          "internalType": "uint256",
          "name": "",
          "type": "uint256"
        }
      ],
      "stateMutability": "view",
      "type": "function",
      "constant": true
    },
    {
      "inputs": [
        {
          "internalType": "address",
          "name": "",
          "type": "address"
        },
        {
          "internalType": "uint256",
          "name": "",
          "type": "uint256"
        }
      ],
      "name": "tickets",
      "outputs": [
        {
          "internalType": "uint256",
          "name": "",
          "type": "uint256"
        }
      ],
      "stateMutability": "view",
      "type": "function",
      "constant": true
    },
    {
      "inputs": [
        {
          "internalType": "string",
          "name": "name",
          "type": "string"
        },
        {
          "internalType": "uint256",
          "name": "date",
          "type": "uint256"
        },
        {
          "internalType": "uint256",
          "name": "price",
          "type": "uint256"
        },
        {
          "internalType": "uint256",
          "name": "ticketCount",
          "type": "uint256"
        }
      ],
      "name": "createEvent",
      "outputs": [],
      "stateMutability": "nonpayable",
      "type": "function"
    },
    {
      "inputs": [
        {
          "internalType": "uint256",
          "name": "id",
          "type": "uint256"
        },
        {
          "internalType": "uint256",
          "name": "quantity",
          "type": "uint256"
        }
      ],
      "name": "buyTicket",
      "outputs": [],
      "stateMutability": "payable",
      "type": "function",
      "payable": true
    },
    {
      "inputs": [
        {
          "internalType": "uint256",
          "name": "id",
          "type": "uint256"
        },
        {
          "internalType": "uint256",
          "name": "quantity",
          "type": "uint256"
        },
        {
          "internalType": "address",
          "name": "to",
          "type": "address"
        }
      ],
      "name": "transferTicket",
      "outputs": [],
      "stateMutability": "nonpayable",
      "type": "function"
    }
  ],
  "bytecode": "0x608060405234801561001057600080fd5b506113c4806100206000396000f3fe608060405260043610610072576000357c0100000000000000000000000000000000000000000000000000000000900480630374ab0b146100775780630b791430146100a0578063298ec208146100e257806361b8ce8c146100fe578063dae7a13c14610129578063f086a09b14610166575b600080fd5b34801561008357600080fd5b5061009e60048036038101906100999190610903565b61018f565b005b3480156100ac57600080fd5b506100c760048036038101906100c2919061098b565b610356565b6040516100d996959493929190610a98565b60405180910390f35b6100fc60048036038101906100f79190610b00565b61043a565b005b34801561010a57600080fd5b5061011361061e565b6040516101209190610b40565b60405180910390f35b34801561013557600080fd5b50610150600480360381019061014b9190610b87565b610624565b60405161015d9190610b40565b60405180910390f35b34801561017257600080fd5b5061018d60048036038101906101889190610bc7565b610649565b005b4283116101d1576040517f08c379a00000000000000000000000000000000000000000000000000000000081526004016101c890610c8c565b60405180910390fd5b60008111610214576040517f08c379a000000000000000000000000000000000000000000000000000000000815260040161020b90610d1e565b60405180910390fd5b6040518060c001604052803373ffffffffffffffffffffffffffffffffffffffff16815260200186868080601f016020809104026020016040519081016040528093929190818152602001838380828437600081840152601f19601f82011690508083019250505050505050815260200184815260200183815260200182815260200182815250600080600254815260200190815260200160002060008201518160000160006101000a81548173ffffffffffffffffffffffffffffffffffffffff021916908373ffffffffffffffffffffffffffffffffffffffff160217905550602082015181600101908161030b9190610f7f565b5060408201518160020155606082015181600301556080820151816004015560a082015181600501559050506002600081548092919061034a90611080565b91905055505050505050565b60006020528060005260406000206000915090508060000160009054906101000a900473ffffffffffffffffffffffffffffffffffffffff169080600101805461039f90610d9c565b80601f01602080910402602001604051908101604052809291908181526020018280546103cb90610d9c565b80156104185780601f106103ed57610100808354040283529160200191610418565b820191906000526020600020905b8154815290600101906020018083116103fb57829003601f168201915b5050505050908060020154908060030154908060040154908060050154905086565b60008060008481526020019081526020016000206002015403610492576040517f08c379a000000000000000000000000000000000000000000000000000000000815260040161048990611114565b60405180910390fd5b4260008084815260200190815260200160002060020154116104e9576040517f08c379a00000000000000000000000000000000000000000000000000000000081526004016104e090611180565b60405180910390fd5b6000806000848152602001908152602001600020905081816003015461050f91906111a0565b3414610550576040517f08c379a00000000000000000000000000000000000000000000000000000000081526004016105479061122e565b60405180910390fd5b8181600501541015610597576040517f08c379a000000000000000000000000000000000000000000000000000000000815260040161058e9061129a565b60405180910390fd5b818160050160008282546105ab91906112ba565b9250508190555081600160003373ffffffffffffffffffffffffffffffffffffffff1673ffffffffffffffffffffffffffffffffffffffff1681526020019081526020016000206000858152602001908152602001600020600082825461061291906112ee565b92505081905550505050565b60025481565b6001602052816000526040600020602052806000526040600020600091509150505481565b600080600085815260200190815260200160002060020154036106a1576040517f08c379a000000000000000000000000000000000000000000000000000000000815260040161069890611114565b60405180910390fd5b4260008085815260200190815260200160002060020154116106f8576040517f08c379a00000000000000000000000000000000000000000000000000000000081526004016106ef90611180565b60405180910390fd5b81600160003373ffffffffffffffffffffffffffffffffffffffff1673ffffffffffffffffffffffffffffffffffffffff168152602001908152602001600020600085815260200190815260200160002054101561078b576040517f08c379a00000000000000000000000000000000000000000000000000000000081526004016107829061136e565b60405180910390fd5b81600160003373ffffffffffffffffffffffffffffffffffffffff1673ffffffffffffffffffffffffffffffffffffffff168152602001908152602001600020600085815260200190815260200160002060008282546107eb91906112ba565b9250508190555081600160008373ffffffffffffffffffffffffffffffffffffffff1673ffffffffffffffffffffffffffffffffffffffff1681526020019081526020016000206000858152602001908152602001600020600082825461085291906112ee565b92505081905550505050565b600080fd5b600080fd5b600080fd5b600080fd5b600080fd5b60008083601f84011261088d5761088c610868565b5b8235905067ffffffffffffffff8111156108aa576108a961086d565b5b6020830191508360018202830111156108c6576108c5610872565b5b9250929050565b6000819050919050565b6108e0816108cd565b81146108eb57600080fd5b50565b6000813590506108fd816108d7565b92915050565b60008060008060006080868803121561091f5761091e61085e565b5b600086013567ffffffffffffffff81111561093d5761093c610863565b5b61094988828901610877565b9550955050602061095c888289016108ee565b935050604061096d888289016108ee565b925050606061097e888289016108ee565b9150509295509295909350565b6000602082840312156109a1576109a061085e565b5b60006109af848285016108ee565b91505092915050565b600073ffffffffffffffffffffffffffffffffffffffff82169050919050565b60006109e3826109b8565b9050919050565b6109f3816109d8565b82525050565b600081519050919050565b600082825260208201905092915050565b60005b83811015610a33578082015181840152602081019050610a18565b60008484015250505050565b6000601f19601f8301169050919050565b6000610a5b826109f9565b610a658185610a04565b9350610a75818560208601610a15565b610a7e81610a3f565b840191505092915050565b610a92816108cd565b82525050565b600060c082019050610aad60008301896109ea565b8181036020830152610abf8188610a50565b9050610ace6040830187610a89565b610adb6060830186610a89565b610ae86080830185610a89565b610af560a0830184610a89565b979650505050505050565b60008060408385031215610b1757610b1661085e565b5b6000610b25858286016108ee565b9250506020610b36858286016108ee565b9150509250929050565b6000602082019050610b556000830184610a89565b92915050565b610b64816109d8565b8114610b6f57600080fd5b50565b600081359050610b8181610b5b565b92915050565b60008060408385031215610b9e57610b9d61085e565b5b6000610bac85828601610b72565b9250506020610bbd858286016108ee565b9150509250929050565b600080600060608486031215610be057610bdf61085e565b5b6000610bee868287016108ee565b9350506020610bff868287016108ee565b9250506040610c1086828701610b72565b9150509250925092565b7f596f752063616e206f7267616e697a6520616e206576656e7420666f7220612060008201527f6675747572652064617465000000000000000000000000000000000000000000602082015250565b6000610c76602b83610a04565b9150610c8182610c1a565b604082019050919050565b60006020820190508181036000830152610ca581610c69565b9050919050565b7f596f752063616e206f7267616e697a6520616e206576656e74206f6e6c79206960008201527f6620796f7520637265617465206d6f7265207468616e2030207469636b657473602082015250565b6000610d08604083610a04565b9150610d1382610cac565b604082019050919050565b60006020820190508181036000830152610d3781610cfb565b9050919050565b7f4e487b7100000000000000000000000000000000000000000000000000000000600052604160045260246000fd5b7f4e487b7100000000000000000000000000000000000000000000000000000000600052602260045260246000fd5b60006002820490506001821680610db457607f821691505b602082108103610dc757610dc6610d6d565b5b50919050565b60008190508160005260206000209050919050565b60006020601f8301049050919050565b60008160020a8302905092915050565b600060088302610e327fffffffffffffffffffffffffffffffffffffffffffffffffffffffffffffffff82610df2565b610e3c8683610df2565b95508019841693508086168417925050509392505050565b6000819050919050565b6000610e79610e74610e6f846108cd565b610e54565b6108cd565b9050919050565b6000819050919050565b610e9383610e5e565b610ea7610e9f82610e80565b848454610e02565b825550505050565b600090565b610ebc610eaf565b610ec7818484610e8a565b505050565b5b81811015610eeb57610ee0600082610eb4565b600181019050610ecd565b5050565b601f821115610f3057610f0181610dcd565b610f0a84610de2565b81016020851015610f19578190505b610f2d610f2585610de2565b830182610ecc565b50505b505050565b60008160020a8304905092915050565b6000610f5660001984600802610f35565b1980831691505092915050565b6000610f6f8383610f45565b9150826002028217905092915050565b610f88826109f9565b67ffffffffffffffff811115610fa157610fa0610d3e565b5b610fab8254610d9c565b610fb6828285610eef565b600060209050601f831160018114610fe95760008415610fd7578287015190505b610fe18582610f63565b865550611049565b601f198416610ff786610dcd565b60005b8281101561101f57848901518255600182019150602085019450602081019050610ffa565b8683101561103c5784890151611038601f891682610f45565b8355505b6001600288020188555050505b505050505050565b7f4e487b7100000000000000000000000000000000000000000000000000000000600052601160045260246000fd5b600061108b826108cd565b91507fffffffffffffffffffffffffffffffffffffffffffffffffffffffffffffffff82036110bd576110bc611051565b5b600182019050919050565b7f4576656e7420646f6573206e6f74206578697374000000000000000000000000600082015250565b60006110fe601483610a04565b9150611109826110c8565b602082019050919050565b6000602082019050818103600083015261112d816110f1565b9050919050565b7f4576656e742068617320616c7265616479206f63637572726564000000000000600082015250565b600061116a601a83610a04565b915061117582611134565b602082019050919050565b600060208201905081810360008301526111998161115d565b9050919050565b60006111ab826108cd565b91506111b6836108cd565b92508282026111c4816108cd565b915082820484148315176111db576111da611051565b5b5092915050565b7f4e6f7420656e6f7567682045746865722073656e740000000000000000000000600082015250565b6000611218601583610a04565b9150611223826111e2565b602082019050919050565b600060208201905081810360008301526112478161120b565b9050919050565b7f4e6f7420656e6f756768207469636b65747320617661696c61626c6500000000600082015250565b6000611284601c83610a04565b915061128f8261124e565b602082019050919050565b600060208201905081810360008301526112b381611277565b9050919050565b60006112c5826108cd565b91506112d0836108cd565b92508282039050818111156112e8576112e7611051565b5b92915050565b60006112f9826108cd565b9150611304836108cd565b925082820190508082111561131c5761131b611051565b5b92915050565b7f596f7520646f206e6f74206861766520656e6f756768207469636b6574730000600082015250565b6000611358601e83610a04565b915061136382611322565b602082019050919050565b600060208201905081810360008301526113878161134b565b905091905056fea26469706673582212200a5cb1fb19b187766af1eef3b92996c87f20fdc28534eec7ff892a3abbe377dd64736f6c63430008150033",
  "immutableReferences": {},
  "source": "// pragma solidity >=0.5.0 <0.9.0;\r\n\r\n// contract EventContract {\r\n//     struct Event {\r\n//         address organizer;\r\n//         string name;\r\n//         uint date; //0 1 2\r\n//         uint price;\r\n//         uint ticketCount; //1 sec 0.5 sec\r\n//         uint ticketRemain;\r\n//     }\r\n//     mapping(uint => Event) public events;\r\n//     mapping(address => mapping(uint => uint)) public tickets;\r\n//     uint public nextId;\r\n\r\n//     function createEvent(\r\n//         string memory name,\r\n//         uint date,\r\n//         uint price,\r\n//         uint ticketCount\r\n//     ) external {\r\n//         require(\r\n//             date > block.timestamp,\r\n//             \"You can organize event for future date\"\r\n//         );\r\n//         require(\r\n//             ticketCount > 0,\r\n//             \"You can organize event only if you create more than 0 tickets\"\r\n//         );\r\n//         events[nextId] = Event(\r\n//             msg.sender,\r\n//             name,\r\n//             date,\r\n//             price,\r\n//             ticketCount,\r\n//             ticketCount\r\n//         );\r\n//         nextId++;\r\n//     }\r\n\r\n//     function buyTicket(uint id, uint quantity) external payable {\r\n//         require(events[id].date != 0, \"Event does not exist\");\r\n//         require(events[id].date > block.timestamp, \"Event has already occured\");\r\n//         Event storage _event = events[id];\r\n//         require(msg.value == (_event.price * quantity), \"Ethere is not enough\");\r\n//         require(_event.ticketRemain >= quantity, \"Not enough tickets\");\r\n//         _event.ticketRemain -= quantity;\r\n//         tickets[msg.sender][id] += quantity;\r\n//     }\r\n\r\n//     function transferTicket(uint id, uint quantity, address to) external {\r\n//         require(events[id].date != 0, \"Event does not exist\");\r\n//         require(events[id].date > block.timestamp, \"Event has already occured\");\r\n//         require(\r\n//             tickets[msg.sender][id] >= quantity,\r\n//             \"You do not have enough tickets\"\r\n//         );\r\n//         tickets[msg.sender][id] -= quantity;\r\n//         tickets[to][id] += quantity;\r\n//     }\r\n// }\r\n\r\n// SPDX-License-Identifier: Unlicense\r\npragma solidity >=0.5.0 <0.9.0;\r\n\r\ncontract EventContract {\r\n    struct Event {\r\n        address organizer;\r\n        string name;\r\n        uint date; //0 1 2\r\n        uint price;\r\n        uint ticketCount; //1 sec 0.5 sec\r\n        uint ticketRemain;\r\n    }\r\n    mapping(uint => Event) public events;\r\n    mapping(address => mapping(uint => uint)) public tickets;\r\n    uint public nextId;\r\n\r\n    function createEvent(\r\n        string calldata name, // Updated data location to calldata\r\n        uint date,\r\n        uint price,\r\n        uint ticketCount\r\n    ) external {\r\n        require(\r\n            date > block.timestamp,\r\n            \"You can organize an event for a future date\"\r\n        );\r\n        require(\r\n            ticketCount > 0,\r\n            \"You can organize an event only if you create more than 0 tickets\"\r\n        );\r\n        events[nextId] = Event(\r\n            msg.sender,\r\n            name,\r\n            date,\r\n            price,\r\n            ticketCount,\r\n            ticketCount\r\n        );\r\n        nextId++;\r\n    }\r\n\r\n    function buyTicket(uint id, uint quantity) external payable {\r\n        require(events[id].date != 0, \"Event does not exist\");\r\n        require(\r\n            events[id].date > block.timestamp,\r\n            \"Event has already occurred\"\r\n        );\r\n        Event storage _event = events[id];\r\n        require(\r\n            msg.value == (_event.price * quantity),\r\n            \"Not enough Ether sent\"\r\n        );\r\n        require(\r\n            _event.ticketRemain >= quantity,\r\n            \"Not enough tickets available\"\r\n        );\r\n        _event.ticketRemain -= quantity;\r\n        tickets[msg.sender][id] += quantity;\r\n    }\r\n\r\n    function transferTicket(uint id, uint quantity, address to) external {\r\n        require(events[id].date != 0, \"Event does not exist\");\r\n        require(\r\n            events[id].date > block.timestamp,\r\n            \"Event has already occurred\"\r\n        );\r\n        require(\r\n            tickets[msg.sender][id] >= quantity,\r\n            \"You do not have enough tickets\"\r\n        );\r\n        tickets[msg.sender][id] -= quantity;\r\n        tickets[to][id] += quantity;\r\n    }\r\n}\r\n",
  "sourcePath": "C:\\Users\\hp\\Desktop\\BC_Miniproj\\contracts\\Eventcontract.sol",
  "compiler": {
    "name": "solc",
    "version": "0.8.21+commit.d9974bed.Emscripten.clang"
  },
  "schemaVersion": "3.4.16",
  "updatedAt": "2024-03-18T13:15:42.842Z",
  "networkType": "ethereum",
  "devdoc": {
    "kind": "dev",
    "methods": {},
    "version": 1
  },
  "userdoc": {
    "kind": "user",
    "methods": {},
    "version": 1
  }
}